:100000000C942A000C9447000C9447000C94470071
:100010000C9447000C9447000C9447000C94470044
:100020000C9447000C9447000C9447000C94470034
:100030000C94EA010C9447000C9447000C94470080
:100040000C9447000C9447000C9447000C94470014
:100050000C94470011241FBECFE5D8E0DEBFCDBF12
:1000600010E0A0E6B0E0E6E2F4E002C005900D92F8
:10007000A038B107D9F720E0A0E8B0E001C01D9298
:10008000A238B207E1F70E945E000C9411020C94B2
:100090000000CF93DF93D82FC62F60E08CE00E9442
:1000A0006001DFB9779BFECFCFB9779BFECF61E0D0
:1000B0008CE00E946001DF91CF9108950E94890039
:1000C0000E94E2016FEF89E00E9449006FEF8AE031
:1000D0000E94490067EF8BE00E94490061E08CE0DC
:1000E0000E94490010E0612FC1E0D1E0D60F8C2FB3
:1000F0000E944900CF5F6D2FC930B9F7185F2FE319
:100100008DE093E0215080409040E1F700C0000076
:10011000EACFE0E6F0E080E041E050E09191282F66
:10012000269526952695382F37709130C9F120F005
:10013000923009F47DC0BFC0213089F028F0223010
:10014000C9F0233011F1B7C09AB3BA0102C0660FEB
:10015000771F3A95E2F79B01292B2ABBACC097B3D6
:10016000BA0102C0660F771F3A95E2F79B01292B6F
:1001700027BBA1C094B3BA0102C0660F771F3A959E
:10018000E2F79B01292B24BB96C091B3BA0102C0B0
:10019000660F771F3A95E2F79B01292B21BB8BC095
:1001A0002130B1F028F0223019F1233089F183C0D9
:1001B0009AB3BA0102C0660F771F3A95E2F79B0126
:1001C000362F309593239ABB9BB3292B2BBB73C03F
:1001D00097B3BA0102C0660F771F3A95E2F79B0109
:1001E000362F3095932397BB98B3292B28BB63C038
:1001F00094B3BA0102C0660F771F3A95E2F79B01EC
:10020000362F3095932394BB95B3292B25BB53C030
:1002100091B3BA0102C0660F771F3A95E2F79B01CE
:10022000362F3095932391BB92B3292B22BB43C029
:100230002130A9F028F0223009F1233071F13BC0C0
:100240009AB3BA0102C0660F771F3A95E2F79B0195
:10025000209592239ABB9BB329232BBB2CC097B329
:10026000BA0102C0660F771F3A95E2F79B0120950D
:10027000922397BB98B3292328BB1DC094B3BA011E
:1002800002C0660F771F3A95E2F79B0120959223F3
:1002900094BB95B3292325BB0EC091B3BA0102C00C
:1002A000660F771F3A95E2F79B012095922391BB49
:1002B00092B3292322BB8F5F803209F02FCF08959C
:1002C000982F9770869586958695813021F130F02C
:1002D0008230F1F1833009F458C00895613069F437
:1002E0004BB321E030E0B90102C0660F771F9A9549
:1002F000E2F7CB01842B8BBB08954BB321E030E0B8
:10030000B90102C0660F771F9A95E2F7CB0180957D
:1003100084238BBB0895613069F448B321E030E059
:10032000B90102C0660F771F9A95E2F7CB01842BC3
:1003300088BB089548B321E030E0B90102C0660FE0
:10034000771F9A95E2F7CB018095842388BB0895A7
:10035000613069F445B321E030E0B90102C0660FB5
:10036000771F9A95E2F7CB01842B85BB089545B39F
:1003700021E030E0B90102C0660F771F9A95E2F7DD
:10038000CB018095842385BB0895613069F442B325
:1003900021E030E0B90102C0660F771F9A95E2F7BD
:1003A000CB01842B82BB089542B321E030E0B90138
:1003B00002C0660F771F9A95E2F7CB0180958423E0
:1003C00082BB08956D9A6C9A6B986A9A689A709835
:1003D0006E9A08951F920F920FB60F9211242F93C9
:1003E0003F934F935F936F937F938F939F93AF93BD
:1003F000BF93EF93FF93E0918000F0918100099506
:10040000FF91EF91BF91AF919F918F917F916F91EC
:100410005F914F913F912F910F900FBE0F901F90C2
:060420001895F894FFCFCF
:1004260000000000000000000000000000000200C4
:1004360000000000000000000200010100000000B2
:00000001FF
