S01200005350495F4D61737465722E737265635B
S11300000C942A000C9447000C9447000C9447006D
S11300100C9447000C9447000C9447000C94470040
S11300200C9447000C9447000C9447000C94470030
S11300300C944B030C9447000C9447000C94470019
S11300400C9447000C9447000C9447000C94470010
S11300500C94470011241FBECFE5D8E0DEBFCDBF0E
S113006010E0A0E6B0E0E8EEF6E002C005900D92E4
S1130070A839B107D9F720E0A8E9B0E001C01D9282
S1130080AA39B207E1F70E94A6010C9472030C94FA
S11300900000CF93DF93C4E6D0E061E088810E9442
S11300A0880261E089810E94880261E08A810E945D
S11300B0880261E08B810E948802C0E6D0E061E0A2
S11300C088810E94880261E089810E94880261E03F
S11300D08A810E94880261E08B810E948802DF91FC
S11300E0CF9108952F923F924F925F926F927F9299
S11300F08F929F92AF92BF92CF92DF92EF92FF9234
S11301000F931F93CF93DF9300D000D01F92CDB7EE
S1130110DEB70F2EF0E66F2EF0E07F2EF02DA12C2F
S1130120B12C8FE08B8343012A2C61E0F4018081A0
S11301300E94880261E0F40181810E94880261E0EA
S1130140F40182810E94880261E0F40183810E94AB
S11301508802BA82A98260E0F30181913F010E9482
S1130160880283EC99E00197F1F700C0000004E6EF
S113017010E0F501E859FF4F6F0133243394E12C6B
S1130180F12C09C0FFEFEF1AFF0A0F5F1F4F3394E2
S113019084E0C80ED11C27011D830C83F8018081E3
S11301A00E940A038111A3C0EC81FD8180810E9419
S11301B00A038823C9F3F1E02F1679F12F1648F0CA
S11301C082E0281609F44DC093E0291609F46CC0A6
S11301D08EC08E2DE11004C0F601F081FB83D2CFD6
S11301E0813021F4F601F081FB83CCCF823021F4FD
S11301F0F601F081FB83C6CF833009F078C0F201A9
S1130200EE0FFF1FEE0FFF1FE859FF4F89819A8100
S1130210E80FF91F90819B836EC08E2DE11004C0FE
S1130220F601F081FB83AECF813021F4F601F08139
S1130230FB83A8CF823021F4F601F081FB83A2CFA7
S1130240833009F054C0F201EE0FFF1FEE0FFF1FC1
S1130250E859FF4F89819A81E80FF91F90819B83A8
S11302604AC08E2DE11004C0F601F081FB838ACFD1
S1130270813021F4F601F081FB8384CF823021F4B4
S1130280F601F081FB837ECF833089F5F201EE0F16
S1130290FF1FEE0FFF1FE859FF4F89819A81E80F76
S11302A0F91F90819B8327C08E2DE11004C0F601B5
S11302B0F081FB8367CF813021F4F601F081FB8369
S11302C061CF823021F4F601F081FB835BCF833070
S11302D0D9F4C201880F991F880F991F88599F4F1D
S11302E0E981FA81E80FF91F80818B8304C093E0D0
S11302F0931508F047CFEFEFAE1ABE0AF4E0AF163D
S1130300B10409F011CF04C083E0831508F03ACF9B
S11303108B810F900F900F900F900F90DF91CF91E2
S11303201F910F91FF90EF90DF90CF90BF90AF900F
S11303309F908F907F906F905F904F903F902F9001
S113034008950E9472008F30E1F308950E94B10174
S11303500E9449000E943D030E94A1010E9445039E
S1130360FBCFE8E7F0E080E041E050E09191282FF6
S1130370269526952695382F37709130C9F120F0AF
S1130380923009F47DC0BFC0213089F028F02230BA
S1130390C9F0233011F1B7C09AB3BA0102C0660F95
S11303A0771F3A95E2F79B01292B2ABBACC097B380
S11303B0BA0102C0660F771F3A95E2F79B01292B19
S11303C027BBA1C094B3BA0102C0660F771F3A9548
S11303D0E2F79B01292B24BB96C091B3BA0102C05A
S11303E0660F771F3A95E2F79B01292B21BB8BC03F
S11303F02130B1F028F0223019F1233089F183C083
S11304009AB3BA0102C0660F771F3A95E2F79B01CF
S1130410362F309593239ABB9BB3292B2BBB73C0E8
S113042097B3BA0102C0660F771F3A95E2F79B01B2
S1130430362F3095932397BB98B3292B28BB63C0E1
S113044094B3BA0102C0660F771F3A95E2F79B0195
S1130450362F3095932394BB95B3292B25BB53C0DA
S113046091B3BA0102C0660F771F3A95E2F79B0178
S1130470362F3095932391BB92B3292B22BB43C0D3
S11304802130A9F028F0223009F1233071F13BC06A
S11304909AB3BA0102C0660F771F3A95E2F79B013F
S11304A0209592239ABB9BB329232BBB2CC097B3D3
S11304B0BA0102C0660F771F3A95E2F79B012095B7
S11304C0922397BB98B3292328BB1DC094B3BA01C8
S11304D002C0660F771F3A95E2F79B01209592239D
S11304E094BB95B3292325BB0EC091B3BA0102C0B6
S11304F0660F771F3A95E2F79B012095922391BBF3
S113050092B3292322BB8F5F803209F02FCF089545
S1130510982F9770869586958695813021F130F0D5
S11305208230F1F1833009F458C00895613069F4E0
S11305304BB321E030E0B90102C0660F771F9A95F2
S1130540E2F7CB01842B8BBB08954BB321E030E061
S1130550B90102C0660F771F9A95E2F7CB01809527
S113056084238BBB0895613069F448B321E030E003
S1130570B90102C0660F771F9A95E2F7CB01842B6D
S113058088BB089548B321E030E0B90102C0660F8A
S1130590771F9A95E2F7CB018095842388BB089551
S11305A0613069F445B321E030E0B90102C0660F5F
S11305B0771F9A95E2F7CB01842B85BB089545B349
S11305C021E030E0B90102C0660F771F9A95E2F787
S11305D0CB018095842385BB0895613069F442B3CF
S11305E021E030E0B90102C0660F771F9A95E2F767
S11305F0CB01842B82BB089542B321E030E0B901E2
S113060002C0660F771F9A95E2F7CB018095842389
S113061082BB0895282F277086958695869581300C
S113062079F028F08230A9F08330E1F024C089B356
S113063090E002C0959587952A95E2F78170089518
S113064086B390E002C0959587952A95E2F781706C
S1130650089583B390E002C0959587952A95E2F7B3
S11306608170089580B390E002C0959587952A958E
S1130670E2F78170089580E008956D9A6C9A6B9802
S11306806A9A689A70986E9A0895C4988FB9779BFD
S1130690FECF8FB108951F920F920FB60F921124BF
S11306A02F933F934F935F936F937F938F939F9376
S11306B0AF93BF93EF93FF93E0919800F09199006B
S11306C00995FF91EF91BF91AF919F918F917F9188
S11306D06F915F914F913F912F910F900FBE0F90AB
S10B06E01F901895F894FFCF58
S11306E804050607000102033738392F3435362A42
S11306F83132332D61303D2B02020202000000002A
S113070800000000000002000000000000000000DB
S10B07180200010100000000D1
S9030000FC
