S0130000554152545F4452495645522E73726563AA
S11300000C942A000C9447000C9447000C9447006D
S11300100C9447000C9447000C9447000C94470040
S11300200C9447000C9447000C9447000C94470030
S11300300C9447000C9447000C9447000C94470020
S11300400C9447000C9447000C9447000C94470010
S11300500C94470011241FBECFE5D8E0DEBFCDBF0E
S113006010E0A0E6B0E0EEEFF7E002C005900D92DC
S1130070A038B107D9F720E0A0E8B0E001C01D9294
S1130080AF38B207E1F70E9493010C94FD030C947E
S11300900000CF93C82F60E088E00E94BB0260E0BC
S11300A089E00E94BB0240EF6C2F80E00E948B022B
S11300B061E08AE00E94BB0283EF91E00197F1F7CF
S11300C000C0000060E08AE00E94BB0283EF91E080
S11300D00197F1F700C000006C2F6295607F40EF3C
S11300E080E00E948B0261E08AE00E94BB0283EF01
S11300F091E00197F1F700C0000060E08AE00E94FF
S1130100BB0283EF91E00197F1F700C00000CF91AB
S11301100895CF93C82F61E088E00E94BB0260E09D
S113012089E00E94BB0240EF6C2F80E00E948B02AA
S113013061E08AE00E94BB0283EF91E00197F1F74E
S113014000C0000060E08AE00E94BB0283EF91E0FF
S11301500197F1F700C000006C2F6295607F40EFBB
S113016080E00E948B0261E08AE00E94BB0283EF80
S113017091E00197F1F700C0000060E08AE00E947E
S1130180BB0283EF91E00197F1F700C00000CF912B
S1130190089583ED90E30197F1F700C0000082E039
S11301A00E94490089EF90E00197F1F700C0000038
S11301B088E20E94490089EF90E00197F1F700C0BE
S11301C000008CE00E94490089EF90E00197F1F76C
S11301D000C0000081E00E94490087E893E1019794
S11301E0F1F700C0000086E00E94490080E80E9408
S11301F049000895811107C0603168F480E8860FD2
S11302000E9449000895813031F4603120F480EC7B
S1130210860F0E94490008952F923F924F925F9259
S11302206F927F928F929F92AF92BF92CF92DF9202
S1130230EF92FF920F931F93CF93DF93CDB7DEB767
S11302402D970FB6F894DEBF0FBECDBF2B87832E3C
S1130250742E652E562E472E382E292EA0E00E948D
S1130260F10321F480E30E94890044C0912C81E0D1
S113027090E08C0F9D1F890D911D9D878C870F2EFB
S1130280FAE0AF2EF02DB12CC12CD12CE12CF12CA5
S113029000E010E02B85382D472D562D652D742D4B
S11302A0832D922D0E949203205DEC85FD85208391
S11302B02B85382D472D562D652D742D832D922D8C
S11302C00E9494032B87832E742E652E562E472E60
S11302D0382E292E9394A0E00E94F10341F6992030
S11302E049F0FE01E90DF11D80810E9489009A9474
S11302F09110F7CF2D960FB6F894DEBF0FBECDBF89
S1130300DF91CF911F910F91FF90EF90DF90CF90ED
S1130310BF90AF909F908F907F906F905F904F9021
S11303203F902F9008950E94B4010E94C9000E943A
S11303303D0360E080E00E94FA000E945B0360934A
S11303408000709381008093820090938300DC018D
S1130350CB01282F392F4A2F5B2F60E070E080E01B
S113036090E00E940C01FFCFE0E6F0E080E041E085
S113037050E09191282F269526952695382F377091
S11303809130C9F120F0923009F47DC0BFC0213012
S113039089F028F02230C9F0233011F1B7C09AB3A4
S11303A0BA0102C0660F771F3A95E2F79B01292B29
S11303B02ABBACC097B3BA0102C0660F771F3A9547
S11303C0E2F79B01292B27BBA1C094B3BA0102C059
S11303D0660F771F3A95E2F79B01292B24BB96C041
S11303E091B3BA0102C0660F771F3A95E2F79B01F9
S11303F0292B21BB8BC02130B1F028F0223019F118
S1130400233089F183C09AB3BA0102C0660F771F03
S11304103A95E2F79B01362F309593239ABB9BB311
S1130420292B2BBB73C097B3BA0102C0660F771F89
S11304303A95E2F79B01362F3095932397BB98B3F7
S1130440292B28BB63C094B3BA0102C0660F771F7F
S11304503A95E2F79B01362F3095932394BB95B3DD
S1130460292B25BB53C091B3BA0102C0660F771F75
S11304703A95E2F79B01362F3095932391BB92B3C3
S1130480292B22BB43C02130A9F028F0223009F1E6
S1130490233071F13BC09AB3BA0102C0660F771FD3
S11304A03A95E2F79B01209592239ABB9BB32923AB
S11304B02BBB2CC097B3BA0102C0660F771F3A95C5
S11304C0E2F79B012095922397BB98B3292328BB7D
S11304D01DC094B3BA0102C0660F771F3A95E2F7C4
S11304E09B012095922394BB95B3292325BB0EC071
S11304F091B3BA0102C0660F771F3A95E2F79B01E8
S11305002095922391BB92B3292322BB8F5F803223
S113051009F02FCF0895813081F028F08230B9F0AE
S11305208330F9F008958BB3942F909589238BBB76
S11305308BB36423682B6BBB089588B3942F909579
S1130540892388BB88B36423682B68BB089585B36B
S1130550942F9095892385BB85B36423682B65BB51
S1130560089582B3942F9095892382BB82B3642328
S1130570682B62BB0895982F97708695869586950B
S1130580813021F130F08230F1F1833009F458C028
S11305900895613069F44BB321E030E0B90102C041
S11305A0660F771F9A95E2F7CB01842B8BBB0895D6
S11305B04BB321E030E0B90102C0660F771F9A9572
S11305C0E2F7CB01809584238BBB0895613069F4F5
S11305D048B321E030E0B90102C0660F771F9A9555
S11305E0E2F7CB01842B88BB089548B321E030E0C7
S11305F0B90102C0660F771F9A95E2F7CB01809587
S1130600842388BB0895613069F445B321E030E068
S1130610B90102C0660F771F9A95E2F7CB01842BCC
S113062085BB089545B321E030E0B90102C0660FEF
S1130630771F9A95E2F7CB018095842385BB0895B3
S1130640613069F442B321E030E0B90102C0660FC1
S1130650771F9A95E2F7CB01842B82BB089542B3AE
S113066021E030E0B90102C0660F771F9A95E2F7E6
S1130670CB018095842382BB08955998549A539A48
S113068080B5826080BD80B5846080BD529880B59D
S11306908F7B80BD80B58F7E80BD80B58F7D80BD12
S11306A080B5877F80BD10BC83E389B908955F9BC3
S11306B0FECF8CB108951F93CF93DF930E9457030D
S11306C0182F0E945703D82F0E945703C82F0E9447
S11306D05703105328EE33E0129FB001139F700D9F
S11306E01124D05394E6D99F600D711D1124C05379
S11306F02C2F30E0A901440F551F220F331F220F66
S1130700331F220F331F240F351F620F731F8053B3
S1130710680F711D072E000C880B990BDF91CF9188
S11307201F910895689401C0E8948F929F92CF938B
S1130730DF930E94A003DF91CF919F908F90089543
S113074088249924F401E401B0E49F93AA279A151C
S11307508B049C04ED05FE05CF05D007A10798F492
S1130760AD2FDC2FCF2FFE2FE92D982C892E982F1B
S1130770872F762F652F542F432F322F2227B850DF
S113078031F7BF9127C01B2EBF91BB27220F331F08
S1130790441F551F661F771F881F991F881C991CAB
S11307A0EE1FFF1FCC1FDD1FAA1FBB1F8A149B0453
S11307B0EC05FD05CE05DF05A007B10748F08A1852
S11307C09B08EC09FD09CE09DF09A00BB10B2160E0
S11307D01A94E1F62EF49401AF01BE01CD01000C90
S11307E008950024A7FD00942A17300540055005FC
S11107F060057005800590050895F894FFCF0C
S11307FE00000000000000000000000000000000E7
S113080E00000000000000000200010100000000D2
S9030000FC
