S00C00004C6162332E73726563D6
S11300000C942A000C9455000C946F000C948900F5
S11300100C9434000C9434000C9434000C9434008C
S11300200C9434000C9434000C9434000C9434007C
S11300300C9434000C9434000C9434000C9434006C
S11300400C9434000C9434000C9434000C9434005C
S11300500C94340011241FBECFE5D8E0DEBFCDBF21
S11300600E944D000C94A3000C94000081B3806E98
S113007081BB8A988B98BA9808958FB780688FBF90
S11300808BB7806E8BBF85B7816085BF85B78C6069
S113009085BF84B78F7B84BF08950E9436000E9479
S11300A03D00959896989798FCCF1F920F920FB6A3
S11300B00F9211242F938F939F93959A2FEF89E694
S11300C098E1215080409040E1F700C000009F91EA
S11300D08F912F910F900FBE0F901F9018951F9224
S11300E00F920FB60F9211242F938F939F93969A8A
S11300F02FEF89E698E1215080409040E1F700C05D
S113010000009F918F912F910F900FBE0F901F9021
S113011018951F920F920FB60F9211242F938F935D
S11301209F93979A2FEF89E698E121508040904061
S1130130E1F700C000009F918F912F910F900FBEA7
S10D01400F901F901895F894FFCF5C
S9030000FC
