S01500004C656420416E696D6174696F6E2E737265633A
S11300000C942A000C9434000C9434000C943400A6
S11300100C9434000C9434000C9434000C9434008C
S11300200C9434000C9434000C9434000C9434007C
S11300300C9434000C9434000C9434000C9434006C
S11300400C9434000C9434000C9434000C9434005C
S11300500C94340011241FBECFE5D8E0DEBFCDBF21
S11300600E9436000C9475000C9400008FEF81BB45
S113007012BA70E060E0FFEFE0E029E030E0872FA3
S1130080962F82BB4FE35DE0A3E041505040A04077
S1130090E1F700C00000880F991F01962150310933
S11300A081F748E050E02F2F3E2F22BB8FE39DE0E5
S11300B0A3E081509040A040E1F700C00000822FEF
S11300C0932F99230CF4019695958795282F392F12
S11300D04150510951F72FE34DE053E02150404086
S11100E05040E1F700C00000C8CFF894FFCFF5
S9030000FC
