:100000000C942A000C9447000C9447000C94470071
:100010000C9447000C9447000C9447000C94470044
:100020000C9447000C9447000C9447000C94470034
:100030000C9447000C9447000C9447000C94470024
:100040000C9447000C9447000C9447000C94470014
:100050000C94470011241FBECFE5D8E0DEBFCDBF12
:1000600010E0A0E6B0E0E6E9F5E002C005900D92F0
:10007000A039B107D9F720E0A0E9B0E001C01D9296
:10008000A039B207E1F70E94C0020C94C9020C9497
:100090000000E0E6F0E080E041E050E09191282FA0
:1000A000269526952695382F37709130C9F120F086
:1000B000923009F47DC0BFC0213089F028F0223091
:1000C000C9F0233011F1B7C09AB3BA0102C0660F6C
:1000D000771F3A95E2F79B01292B2ABBACC097B357
:1000E000BA0102C0660F771F3A95E2F79B01292BF0
:1000F00027BBA1C094B3BA0102C0660F771F3A951F
:10010000E2F79B01292B24BB96C091B3BA0102C030
:10011000660F771F3A95E2F79B01292B21BB8BC015
:100120002130B1F028F0223019F1233089F183C059
:100130009AB3BA0102C0660F771F3A95E2F79B01A6
:10014000362F309593239ABB9BB3292B2BBB73C0BF
:1001500097B3BA0102C0660F771F3A95E2F79B0189
:10016000362F3095932397BB98B3292B28BB63C0B8
:1001700094B3BA0102C0660F771F3A95E2F79B016C
:10018000362F3095932394BB95B3292B25BB53C0B1
:1001900091B3BA0102C0660F771F3A95E2F79B014F
:1001A000362F3095932391BB92B3292B22BB43C0AA
:1001B0002130A9F028F0223009F1233071F13BC041
:1001C0009AB3BA0102C0660F771F3A95E2F79B0116
:1001D000209592239ABB9BB329232BBB2CC097B3AA
:1001E000BA0102C0660F771F3A95E2F79B0120958E
:1001F000922397BB98B3292328BB1DC094B3BA019F
:1002000002C0660F771F3A95E2F79B012095922373
:1002100094BB95B3292325BB0EC091B3BA0102C08C
:10022000660F771F3A95E2F79B012095922391BBC9
:1002300092B3292322BB8F5F803209F02FCF08951C
:10024000813081F028F08230B9F08330F9F00895E0
:100250008BB3942F909589238BBB8BB36423682B2E
:100260006BBB089588B3942F9095892388BB88B37E
:100270006423682B68BB089585B3942F90958923D8
:1002800085BB85B36423682B65BB089582B3942F27
:100290009095892382BB82B36423682B62BB089547
:1002A000982F9770869586958695813021F130F04C
:1002B0008230F1F1833009F458C00895613069F457
:1002C0004BB321E030E0B90102C0660F771F9A9569
:1002D000E2F7CB01842B8BBB08954BB321E030E0D8
:1002E000B90102C0660F771F9A95E2F7CB0180959E
:1002F00084238BBB0895613069F448B321E030E07A
:10030000B90102C0660F771F9A95E2F7CB01842BE3
:1003100088BB089548B321E030E0B90102C0660F00
:10032000771F9A95E2F7CB018095842388BB0895C7
:10033000613069F445B321E030E0B90102C0660FD5
:10034000771F9A95E2F7CB01842B85BB089545B3BF
:1003500021E030E0B90102C0660F771F9A95E2F7FD
:10036000CB018095842385BB0895613069F442B345
:1003700021E030E0B90102C0660F771F9A95E2F7DD
:10038000CB01842B82BB089542B321E030E0B90158
:1003900002C0660F771F9A95E2F7CB018095842300
:1003A00082BB0895CF93C82F60E089E00E9450017E
:1003B00060E08AE00E94500140EF6C2F80E00E94D4
:1003C000200161E08BE00E94500183EF91E00197F2
:1003D000F1F700C0000060E08BE00E94500183EF65
:1003E00091E00197F1F700C000006C2F6295607FEB
:1003F00040EF80E00E94200161E08BE00E9450010C
:1004000083EF91E00197F1F700C0000060E08BE01E
:100410000E94500183EF91E00197F1F700C00000C6
:10042000CF910895CF93C82F61E089E00E945001D9
:1004300060E08AE00E94500140EF6C2F80E00E9453
:10044000200161E08BE00E94500183EF91E0019771
:10045000F1F700C0000060E08BE00E94500183EFE4
:1004600091E00197F1F700C000006C2F6295607F6A
:1004700040EF80E00E94200161E08BE00E9450018B
:1004800083EF91E00197F1F700C0000060E08BE09E
:100490000E94500183EF91E00197F1F700C0000046
:1004A000CF91089583ED90E30197F1F700C000002C
:1004B00082E00E94D20189EF90E00197F1F700C03D
:1004C000000088E20E94D20189EF90E00197F1F7E5
:1004D00000C000008CE00E94D20189EF90E00197FB
:1004E000F1F700C0000081E00E94D20187E893E1AB
:1004F0000197F1F700C0000086E00E94D20180E879
:100500000E94D2010895811107C0603168F480E82B
:10051000860F0E94D2010895813031F4603120F4B9
:1005200080EC860F0E94D201089581E00E94D201E2
:1005300008950F931F93CF93DF938C01C0E016C0F3
:10054000D1E0DC0F0E941202D03129F460E081E09A
:100550000E9483020AC0CF51C23038F40E94950233
:1005600060E080E00E948302D0E0CD2FF80181910D
:100570008F018111E5CFDF91CF911F910F910895E8
:100580000E9449000E94520280E890E00E94990275
:06059000FFCFF894FFCF3D
:100596000000000000000000000000000000000055
:1005A6000000000000000000000001010000000043
:1005B6004C6561726E20496E206465707468000037
:00000001FF
