S00C0000554152542E73726563DC
S11300000C942A000C9447000C9447000C9447006D
S11300100C9447000C9447000C9447000C94470040
S11300200C9447000C9447000C9447000C94470030
S11300300C9447000C94B5030C9447000C94DE0315
S11300400C9447000C9447000C9447000C94470010
S11300500C94470011241FBECFE5D8E0DEBFCDBF0E
S113006010E0A0E6B0E0EAE7F9E002C005900D92E6
S1130070A039B107D9F720E0A0E9B0E001C01D9292
S1130080A939B207E1F70E94BE010C94BB040C9499
S11300900000CF93C82F60E088E00E941B0360E05B
S11300A089E00E941B0340EF6C2F80E00E94EB026A
S11300B061E08AE00E941B0383EF91E00197F1F76E
S11300C000C0000060E08AE00E941B0383EF91E01F
S11300D00197F1F700C000006C2F6295607F40EF3C
S11300E080E00E94EB0261E08AE00E941B0383EF40
S11300F091E00197F1F700C0000060E08AE00E94FF
S11301001B0383EF91E00197F1F700C00000CF914A
S11301100895CF93C82F61E088E00E941B0360E03C
S113012089E00E941B0340EF6C2F80E00E94EB02E9
S113013061E08AE00E941B0383EF91E00197F1F7ED
S113014000C0000060E08AE00E941B0383EF91E09E
S11301500197F1F700C000006C2F6295607F40EFBB
S113016080E00E94EB0261E08AE00E941B0383EFBF
S113017091E00197F1F700C0000060E08AE00E947E
S11301801B0383EF91E00197F1F700C00000CF91CA
S1130190089583ED90E30197F1F700C0000082E039
S11301A00E94490089EF90E00197F1F700C0000038
S11301B088E20E94490089EF90E00197F1F700C0BE
S11301C000008CE00E94490089EF90E00197F1F76C
S11301D000C0000081E00E94490087E893E1019794
S11301E0F1F700C0000086E00E94490080E80E9408
S11301F049000895811107C0603168F480E8860FD2
S11302000E9449000895813031F4603120F480EC7B
S1130210860F0E944900089581E00E9449000895D4
S11302200F931F93CF93DF938C01C0E016C0D1E0EE
S1130230DC0F0E948900D03129F460E081E00E9443
S1130240FA000AC0CF51C23038F40E940C0160E0B9
S113025080E00E94FA00D0E0CD2FF80181918F0157
S11302608111E5CFDF91CF911F910F9108952F92C6
S11302703F924F925F926F927F928F929F92AF9232
S1130280BF92CF92DF92EF92FF920F931F93CF937F
S1130290DF93CDB7DEB72D970FB6F894DEBF0FBE50
S11302A0CDBF2B87832E742E652E562E472E382EC7
S11302B0292EA0E00E94AF0421F480E30E9489006B
S11302C044C0912C81E090E08C0F9D1F890D911DFD
S11302D09D878C870F2EFAE0AF2EF02DB12CC12C08
S11302E0D12CE12CF12C00E010E02B85382D472D8A
S11302F0562D652D742D832D922D0E945004205D62
S1130300EC85FD8520832B85382D472D562D652DB5
S1130310742D832D922D0E9452042B87832E742ECC
S1130320652E562E472E382E292E9394A0E00E9437
S1130330AF0441F6992049F0FE01E90DF11D8081D9
S11303400E9489009A949110F7CF2D960FB6F894D5
S1130350DEBF0FBECDBFDF91CF911F910F91FF90F4
S1130360EF90DF90CF90BF90AF909F908F907F9051
S11303706F905F904F903F902F900895CF93DF93AD
S1130380CDB7DEB7C456D1090FB6F894DEBF0FBEA1
S1130390CDBF78940E9414020E94C9000E949D035C
S11303A081E690E00E943604CE0101960E94450445
S11303B060E081E00E94FA00CE0101960E941001E3
S11303C065E080E00E94FA0021E030E040E050E087
S11303D060E070E080E090E00E94370112E001C02C
S11303E010E02FEF82E597E0215080409040E1F744
S11303F000C0000060E081E00E94FA00CE01019696
S11304000E94100165E080E00E94FA00212F30E094
S113041040E050E060E070E080E090E00E9437014E
S11304201F5F1A30F1F6DCCFEFE6F0E080E041E048
S113043050E09191282F269526952695382F3770D0
S11304409130C9F120F0923009F47DC0BFC0213051
S113045089F028F02230C9F0233011F1B7C09AB3E3
S1130460BA0102C0660F771F3A95E2F79B01292B68
S11304702ABBACC097B3BA0102C0660F771F3A9586
S1130480E2F79B01292B27BBA1C094B3BA0102C098
S1130490660F771F3A95E2F79B01292B24BB96C080
S11304A091B3BA0102C0660F771F3A95E2F79B0138
S11304B0292B21BB8BC02130B1F028F0223019F157
S11304C0233089F183C09AB3BA0102C0660F771F43
S11304D03A95E2F79B01362F309593239ABB9BB351
S11304E0292B2BBB73C097B3BA0102C0660F771FC9
S11304F03A95E2F79B01362F3095932397BB98B337
S1130500292B28BB63C094B3BA0102C0660F771FBE
S11305103A95E2F79B01362F3095932394BB95B31C
S1130520292B25BB53C091B3BA0102C0660F771FB4
S11305303A95E2F79B01362F3095932391BB92B302
S1130540292B22BB43C02130A9F028F0223009F125
S1130550233071F13BC09AB3BA0102C0660F771F12
S11305603A95E2F79B01209592239ABB9BB32923EA
S11305702BBB2CC097B3BA0102C0660F771F3A9504
S1130580E2F79B012095922397BB98B3292328BBBC
S11305901DC094B3BA0102C0660F771F3A95E2F703
S11305A09B012095922394BB95B3292325BB0EC0B0
S11305B091B3BA0102C0660F771F3A95E2F79B0127
S11305C02095922391BB92B3292322BB8F5F803263
S11305D009F02FCF0895813081F028F08230B9F0EE
S11305E08330F9F008958BB3942F909589238BBBB6
S11305F08BB36423682B6BBB089588B3942F9095B9
S1130600892388BB88B36423682B68BB089585B3AA
S1130610942F9095892385BB85B36423682B65BB90
S1130620089582B3942F9095892382BB82B3642367
S1130630682B62BB0895982F97708695869586954A
S1130640813021F130F08230F1F1833009F458C067
S11306500895613069F44BB321E030E0B90102C080
S1130660660F771F9A95E2F7CB01842B8BBB089515
S11306704BB321E030E0B90102C0660F771F9A95B1
S1130680E2F7CB01809584238BBB0895613069F434
S113069048B321E030E0B90102C0660F771F9A9594
S11306A0E2F7CB01842B88BB089548B321E030E006
S11306B0B90102C0660F771F9A95E2F7CB018095C6
S11306C0842388BB0895613069F445B321E030E0A8
S11306D0B90102C0660F771F9A95E2F7CB01842B0C
S11306E085BB089545B321E030E0B90102C0660F2F
S11306F0771F9A95E2F7CB018095842385BB0895F3
S1130700613069F442B321E030E0B90102C0660F00
S1130710771F9A95E2F7CB01842B82BB089542B3ED
S113072021E030E0B90102C0660F771F9A95E2F725
S1130730CB018095842382BB08955998529886E80A
S113074080BD10BC83E389B9549A539A0895579A8B
S11307500895569A08959093930080939200089573
S1130760909391008093900008951F920F920FB67A
S11307700F9211242F933F934F935F936F937F9323
S11307808F939F93AF93BF93EF93FF93E091920066
S1130790F0919300309709F00995FF91EF91BF9183
S11307A0AF919F918F917F916F915F914F913F9105
S11307B02F910F900FBE0F901F9018951F920F92BC
S11307C00FB60F9211242F933F934F935F936F9320
S11307D07F938F939F93AF93BF93EF93FF93E09196
S11307E09000F0919100309709F00995FF91EF91F5
S11307F0BF91AF919F918F917F916F915F914F9135
S11308003F912F910F900FBE0F901F9018958CB9A8
S113081008958CB1089580916000E0919700F09163
S11308209800E80FF11D8081882341F00E9407049D
S1130830809160008F5F80936000089581E08093D1
S113084060000895CF93DF93C0919500D0919600F6
S11308508091940091E0980F90939400C80FD11D5B
S11308600E9409048883DF91CF91089590939800A2
S113087080939700FC0180810E9407048BE094E040
S11308800E94B0030E94A903089590939600809358
S1130890950082E294E00E94AB030E94A7030895AE
S11308A0689401C0E8948F929F92CF93DF930E9443
S11308B05E04DF91CF919F908F90089588249924AE
S11308C0F401E401B0E49F93AA279A158B049C04D5
S11308D0ED05FE05CF05D007A10798F4AD2FDC2F59
S11308E0CF2FFE2FE92D982C892E982F872F762F26
S11308F0652F542F432F322F2227B85031F7BF9141
S113090027C01B2EBF91BB27220F331F441F551F27
S1130910661F771F881F991F881C991CEE1FFF1FD5
S1130920CC1FDD1FAA1FBB1F8A149B04EC05FD0509
S1130930CE05DF05A007B10748F08A189B08EC092B
S1130940FD09CE09DF09A00BB10B21601A94E1F671
S11309502EF49401AF01BE01CD01000C08950024D2
S1130960A7FD00942A173005400550056005700561
S10D0970800590050895F894FFCF68
S113097A014F73616D61204D61686D6F756400008C
S113098A0000000000000000000000000000000059
S113099A0000000000000002000101000000000045
S9030000FC
