S01E00004C6564416E696D6174696F6E206279207377697463682E73726563A4
S11300000C942A000C9434000C9434000C943400A6
S11300100C9434000C9434000C9434000C9434008C
S11300200C9434000C9434000C9434000C9434007C
S11300300C9434000C9434000C9434000C9434006C
S11300400C9434000C9434000C9434000C9434005C
S11300500C94340011241FBECFE5D8E0DEBFCDBF21
S11300600E9436000C9445000C9400008FEF81BB75
S113007012BAD19880E090E0C99BFECF880F991FF7
S1110080019682BBC999FECFF7CFF894FFCF4B
S9030000FC
