:100000000C942A000C943F000C943F000C943F0089
:100010000C943F000C943F000C943F000C943F0064
:100020000C943F000C943F000C943F000C943F0054
:100030000C943F000C943F000C943F000C943F0044
:100040000C943F000C943F000C943F000C943F0034
:100050000C943F0011241FBECFE5D8E0DEBFCDBF1A
:1000600010E0A0E6B0E0E4E7F3E002C005900D92F6
:10007000A836B107D9F70E94A4010C94B8010C94DA
:10008000000084B3807F84BB84B3806F84BB8FEF18
:1000900085BB0895FF920F931F93CF93DF93A0E644
:1000A000B0E08EE400E0FD0161E070E00F2EF1E6CB
:1000B000FF2EF02D95B3AB01008002C0440F551FF9
:1000C0000A94E2F79B01018002C0220F331F0A94B9
:1000D000E2F7242B292BAB01028002C0440F551FED
:1000E0000A94E2F7422B9B01038002C0220F331FC8
:1000F0000A94E2F7242B25BB25B3AB010D9002C077
:10010000440F551F0A94E2F7942F9095922395BBC4
:10011000C3ECD9E02197F1F700C0000011E090E0B6
:1001200002C09F5F1F5F23B3C92FD0E0CC59DF4FC0
:10013000488130E0042E02C0359527950A94E2F7F5
:1001400020FD38C09B0102C0220F331F4A95E2F701
:10015000A90123B330E024233523232BD1F301302D
:1001600079F028F00230A9F00330E1F023C09923A0
:1001700059F1913059F1923059F19330D9F43CC092
:10018000992341F1913041F1923041F1933091F452
:1001900035C0992329F1913029F1923029F193301A
:1001A00049F42EC0992311F1913011F1923011F1DF
:1001B000933041F0143008F4B4CF0F5F043009F0ED
:1001C00079CF21C08BE21FC087E3ABCF84E3A9CFF7
:1001D00081E3A7CF88E3A5CF85E3A3CF82E3A1CFB7
:1001E00089E39FCF86E39DCF83E39BCF8FE299CFB7
:1001F0008AE297CF8DE295CF8F2D03C080E301C0B7
:100200008DE30F5F57CFDF91CF911F910F91FF903B
:10021000089598B39C7F98BB98B39F70282F207F38
:10022000922B98BBC29AE3EFF1E03197F1F700C04F
:100230000000C298E3EFF1E03197F1F700C0000051
:1002400028B32F70F0E18F9FC0011124822B88BB4F
:10025000C29A83EF91E00197F1F700C00000C298C5
:10026000E3EFF1E03197F1F700C000000895C09A84
:10027000C19898B39F70282F207F922B98BBC29A69
:10028000E3EFF1E03197F1F700C00000C298E3EF2F
:10029000F1E03197F1F700C0000028B32F70F0E1D2
:1002A0008F9FC0011124822B88BBC29A83EF91E0FB
:1002B0000197F1F700C00000C298E3EFF1E0319739
:1002C000F1F700C00000089583ED90E30197F1F786
:1002D00000C0000087B3876087BB88B3887F88BB76
:1002E0008FEF87BB82E00E94090189EF90E00197C0
:1002F000F1F700C0000088E20E94090189EF90E058
:100300000197F1F700C000008CE00E94090189EF1D
:1003100090E00197F1F700C0000081E00E94090120
:1003200087E893E10197F1F700C0000086E00E94A2
:10033000090180E80E94090108950E94370108958B
:1003400081E00E94090108950E9464010E94410019
:100350000E944A009C0133272E343105C9F321360F
:10036000310519F40E94A001F3CF0E949D01F0CF46
:04037000F894FFCF2F
:08037400040506070001020365
:00000001FF
