S01100005350495F536C6176652E73726563CD
S11300000C942A000C9447000C9447000C9447006D
S11300100C9447000C9447000C9447000C94470040
S11300200C9447000C9447000C9447000C94470030
S11300300C9454010C9447000C9447000C94470012
S11300400C9447000C9447000C9447000C94470010
S11300500C94470011241FBECFE5D8E0DEBFCDBF0E
S113006010E0A0E6B0E0EAEFF2E002C005900D92E5
S1130070A038B107D9F720E0A0E8B0E001C01D9294
S1130080A238B207E1F70E9449000C947B010C945A
S113009000000E9460000E944701CFEF2FEF89E625
S11300A098E1215080409040E1F700C000008C2F7F
S11300B00E944F01682F80E00E943701C150EECFAB
S11300C0E0E6F0E080E041E050E09191282F2695B1
S11300D026952695382F37709130C9F120F092304B
S11300E009F47DC0BFC0213089F028F02230C9F066
S11300F0233011F1B7C09AB3BA0102C0660F771F5B
S11301003A95E2F79B01292B2ABBACC097B3BA01FD
S113011002C0660F771F3A95E2F79B01292B27BB94
S1130120A1C094B3BA0102C0660F771F3A95E2F7F3
S11301309B01292B24BB96C091B3BA0102C0660F60
S1130140771F3A95E2F79B01292B21BB8BC0213005
S1130150B1F028F0223019F1233089F183C09AB329
S1130160BA0102C0660F771F3A95E2F79B01362F5A
S1130170309593239ABB9BB3292B2BBB73C097B3A6
S1130180BA0102C0660F771F3A95E2F79B01362F3A
S11301903095932397BB98B3292B28BB63C094B3A2
S11301A0BA0102C0660F771F3A95E2F79B01362F1A
S11301B03095932394BB95B3292B25BB53C091B39E
S11301C0BA0102C0660F771F3A95E2F79B01362FFA
S11301D03095932391BB92B3292B22BB43C021308A
S11301E0A9F028F0223009F1233071F13BC09AB311
S11301F0BA0102C0660F771F3A95E2F79B0120957A
S113020092239ABB9BB329232BBB2CC097B3BA016F
S113021002C0660F771F3A95E2F79B01209592235F
S113022097BB98B3292328BB1DC094B3BA0102C05D
S1130230660F771F3A95E2F79B012095922394BBB2
S113024095B3292325BB0EC091B3BA0102C0660F32
S1130250771F3A95E2F79B012095922391BB92B3C5
S1130260292322BB8F5F803209F02FCF089581307C
S113027041F028F0823039F0833039F008956BBBB7
S1130280089568BB089565BB089562BB08956D9A8F
S11302906C986B986A9A689A70986E9A08958FB958
S11302A0779BFECF8FB108951F920F920FB60F92D6
S11302B011242F933F934F935F936F937F938F9367
S11302C09F93AF93BF93EF93FF93E0918000F091DE
S11302D081000995FF91EF91BF91AF919F918F910B
S11302E07F916F915F914F913F912F910F900FBE2E
S10D02F00F901F901895F894FFCFAB
S11302FA00000000000000000000000002020002EA
S113030A00000000000000000200010100000000DB
S9030000FC
