S0120000546F67676C65334C65642E7372656368
S11300000C942A000C9434000C9434000C943400A6
S11300100C9434000C9434000C9434000C9434008C
S11300200C9434000C9434000C9434000C9434007C
S11300300C9434000C9434000C9434000C9434006C
S11300400C9434000C9434000C9434000C9434005C
S11300500C94340011241FBECFE5D8E0DEBFCDBF21
S11300600E9452000C9490000C9400000F931F9374
S11300709C01AAE9B2E00E9481008B019C01672BDC
S1130080682B692B61F080E090E000000196AC01E0
S113009060E070E04017510762077307B0F31F91E7
S11300A00F9108958D9A8E9A8F9A8C9AEE24E394E8
S11300B0F12C05E010E082B3E701002E02C0CC0F62
S11300C0DD1F0A94E2F78C2B82BB8FE590E00E943F
S11300D0360082B3C095C823C2BB8FE590E00E946E
S11300E036000F5F1F4F0830110529F7949A8FE5EA
S11300F090E00E94360094988FE590E00E943600CC
S1130100D8CFA29FB001B39FC001A39F700D811DE2
S11301101124911DB29F700D811D1124911D08950C
S1070120F894FFCF7D
S9030000FC
